:020000040000FA
:0400000086EF08F08F
:08000800056ED8CF06F0E0CF31
:1000100007F00001E9CF0DF0EACF08F0E1CF09F0D9
:10002000E2CF0AF0D9CF0BF0DACF0CF0F3CF14F017
:10003000F4CF15F0FACF16F000C00FF001C010F0A9
:1000400002C011F003C012F004C013F09DA02CEF09
:1000500000F09EB0F4EF04F0F2A832EF00F0F2B23C
:1000600072EF00F09DAA38EF00F09EBA3EEF01F06B
:100070000FC000F010C001F011C002F012C003F078
:1000800013C004F00E8E0DC0E9FF08C0EAFF09C0DE
:10009000E1FF0AC0E2FF0BC0D9FF0CC0DAFF14C0B9
:1000A000F3FF15C0F4FF16C0FAFF055007C0E0FFCC
:1000B00006C0D8FF1000F2CF0EF0F29EF76AD00F04
:1000C000F66E000EF7220900F5500EBEF28E1200F9
:1000D000506564726F426572746F6C65746932301A
:1000E00031350000192AD8B41A2AF29238EF00F0FC
:1000F0009EAAFED7ABCF5BF0AECF01F05BA202D0E1
:10010000AB98AB883FEF01F0896703D08A6702D0D4
:1001100007D08A2B88C0EEFF892FFCD78A2FFAD709
:10012000000C875102080BE1EA6A210EE96E886B28
:100130008A6B180E896FE8DF020E3A6E02D0010E4C
:100140003A6E3CEF01F087C021F0212C03D0030E62
:100150003A6E02D0010E3A6E3CEF01F087C022F0F9
:10016000040E3A6E3CEF01F08751140803E2010ED1
:100170003A6E04D087C023F0050E3A6E3CEF01F0D2
:1001800087C024F0235204E0396A060E3A6E03D089
:10019000010E3C6E3A6E3CEF01F0886B896B235088
:1001A000895D10E2036A8951040F016E000E03227B
:1001B0000150210FE96E000E0320EA6EEF508827F0
:1001C000892BEDD78851FF0A010F886F2450885D75
:1001D00004E1010E016E04D003D0000E016E00D0C8
:1001E00006EF01F02350395C10E2036A3950040F26
:1001F000016E000E03220150210FE96E000E032054
:10020000EA6E87C0EFFF392A09D0C7D7012C03D087
:10021000010E3C6E01D03C6A010E3A6E3CEF01F0DB
:100220003A50010A0BE0030A0CE0010A0DE0070A4C
:100230000EE0010A0FE0030A10E012D086C087F03A
:1002400070D786C087F07FD786C087F087D786C0F3
:1002500087F08AD786C087F093D786C087F0C2D749
:10026000010E3A6E3C6AEA6A210EE96E886B8A6B6F
:10027000180E896F49DF00D044EF01F039D701C073
:1002800085F085C086F0CCD79E9A38EF00F0925169
:10029000D8B471D0006E9651D8B46DD0002604E366
:1002A000810E002668E204D07F0E005E64E363E006
:1002B00093C09AF097519A1B938F978F95519903FA
:1002C000F4CF9CF094519803F4CF03F0F3CF9BF05C
:1002D0009903F3509C27F4509B23000E0322955161
:1002E0009803F3509C27F4509B23000E026A0322CC
:1002F000022293519903F3509B27F4500322000EDE
:10030000022293519803F3500326F4500222000E68
:10031000016A012295519703F3509B27F450032261
:10032000000E0222012294519703F3500326F45049
:100330000222000E012293519703F3500226F4503B
:100340000122002A01BE05D09B3703360236013652
:100350000006000E9BAF0AD0032A022201220150A0
:1003600005E1025003E1035001E1002A9ABF018E2A
:100370009AAF019E04D0006A016A026A036A000C07
:100380009251B608926F036A93C096F0938FD890FB
:100390009333943395330332023201320032922F79
:1003A000F6D796AF0BD0001E011E021E031E002AB8
:1003B000D8B4012AD8B4022AD8B4032A52EF02F0E2
:1003C000006A016A026A036A9A6B9B6B9C6B9D6B65
:1003D00099519811971196112CE0200E9E6FD8908C
:1003E00092379337943795379A379B379C379D3799
:1003F00099519D5D08E198519C5D05E197519B5D88
:1004000002E196519A5D0FE396519A5F9751D8A0F9
:10041000973D9B5F9851D8A0983D9C5F9951D8A07B
:10042000993D9D5FD88000360136023603369E2FF7
:10043000D6D7EA6A9A0EE96E000C5DC0EAFF5CC08E
:10044000E9FF92C0EFFFE92AD8B4EA2AEF6A5C2AF2
:10045000D8B45D2A000CE9508A6F89518C6F19E07D
:1004600088C095F087C094F086C093F085C092F064
:10047000996B986B200E976F820E966F08DF03C002
:1004800088F002C087F001C086F000C085F08C2F94
:10049000E7D788C095F087C094F086C093F085C0F8
:1004A00092F06ED703C088F002C087F001C086F0DA
:1004B00000C085F088AF0DD08A078A8B851F861F04
:1004C000871F881F852BD8B4862BD8B4872BD8B428
:1004D000882B3B0E916F9A0E906FCA0E8F6F8E6BAA
:1004E0000A0E8C6F8951D8B48A2B88C095F087C0CA
:1004F00094F086C093F085C092F091C099F090C0BE
:1005000098F08FC097F08EC096F05ADF0150EFCF71
:1005100085F0ECCF86F0ECCF87F0ECCF88F000527E
:100520000FE189298C5D0CE08A510CE00F0B8C5D8A
:1005300001E037E28ABF35D08ABD04D0200E2DD02D
:10054000200E8A178AAB0CD08A9B8951D8A48A07BF
:1005500000508A6F2D0E926F70DF8A51006E8A6B89
:1005600089518C5D0AE100508A6F2E0E926F65DF13
:100570008A51006E200E8A17000E300E8AAB0DD005
:100580008A9B8951D8A48A0700508A6F2D0E926FDA
:1005900054DF8A51006E8A6B300E002600C092F044
:1005A0004CDF91C095F090C094F08FC093F08EC056
:1005B00092F0996B986B976B0A0E966F01DF03C0F0
:1005C00091F002C090F001C08FF000C08EF08C2F2F
:1005D0008CD7000C8E0E006E8AC001F089C002F02C
:1005E000036A015209E102C001F0026A080E005ECE
:1005F000015202E1006A08D0D89001BE04D0023650
:1006000001360006F9D7019E000C8951D8B4A5D057
:10061000956F8D51D8B4A1D0955F05E37F0E9527D6
:10062000D8B09BD006D0810E955FD8A096D0D8B414
:1006300094D095C000F0016A026A036A946B8AC084
:1006400093F0938F8BC092F08CC091F0190E956F40
:100650009051915F0DE2010E925F0AE2935F08E212
:10066000945F06E2942B932B922B9051912728D0E4
:100670008F51925F12E2010E935F0FE2945F0DE2E1
:10068000942B932B8F5192279051912719E3922B02
:1006900017E1932B15E1942B13D08E518009935FB2
:1006A0000EE2010E945F0BE2942B8E51800993278A
:1006B0008F519227E9E3932BE7E1942BE5D7038051
:1006C000952F01D00BD0D89091379237933794372C
:1006D000D8900336023601369637BAD796A106D09F
:1006E000D890013202320332963302D0000635E050
:1006F00096BF1ED0D8909137923793379437905148
:10070000915F07E2010E925F04E2935F02E2945F61
:100710001AE38F51925F05E2010E935F02E2945F4C
:1007200012E38E518009935F03E2010E945F0BE3A5
:10073000032A09E1022A07E1012A05E1002A0DE066
:100740000132023203328AC095F08E51951B95AF6B
:1007500002D0018E06D0019E04D0006A016A026AAE
:10076000036A78EF05F0800ED8B28A1B8F6B906B0E
:1007700086C08EF08A518E1B8551D8B4DCD08D6F27
:10078000006E8951D8B4E0D08D5FD8B481D03DE3FC
:100790008AC093F0938F8BC092F08CC091F0906BD5
:1007A000D89093339233913390338D2FF8D78EAF07
:1007B00003D08F81DDD08F918D918F89EA6A880E69
:1007C000E96EE9D08F998EBF0AD08DA113D09333F3
:1007D000923391339033002AD8B4C5D00BD093BF55
:1007E0000CD0D89090379137923793370006D8B411
:1007F000BAD0F5D78F8D6BD08F9D86C08EF086AF27
:1008000002D0938FA9D0939FA7D089C08DF089C0C3
:1008100000F085518D5F86C093F0938F87C092F072
:1008200088C091F0906BD89093339233913390338A
:100830008D2FF8D78EAF03D08F839AD08F938D9161
:100840008F8BEA6A8C0EE96EA6D08F9B8EBF0AD082
:100850008DA113D09333923391339033002AD8B4BF
:1008600082D00BD093BF0CD0D8909037913792376D
:1008700093370006D8B477D0F5D78F8F28D08F9FC5
:100880008AC08EF08AAF02D0938F66D0939F64D0D7
:100890008AC093F0938F8BC092F08CC091F08EAF92
:1008A00004D0939F8F8564D08F95906B8D91EA6A69
:1008B000880EE96E70D08EBF1CD086C08EF08DA1E0
:1008C00006D09333923391339033002A4CE090AFAB
:1008D0000BD0912B09E1922B07E1932B05E1933388
:1008E00092339133002A3FE08FBD86D78FBFC7D7A1
:1008F0001CD0800E931B93AF04D03AD08AC08EF0E8
:100900000AD086C08EF0935306E1925304E19153CE
:1009100002E1006A21D093BF08D0D8909037913778
:1009200092379337002EF7D71ED08EAF02D0938F19
:1009300013D0939F11D089C000F08AC093F08BC070
:1009400092F08CC091F008D085C000F086C093F082
:1009500087C092F088C091F093C001F092C002F07D
:1009600091C003F034D0006A016A026A036A2FD092
:10097000906B911F921F931F901F902B05E1912B5D
:1009800003E1922B01E1932B8FB115D78FB356D78B
:100990008FB58AD7B3D7EF50912705E3922B03E1A8
:1009A000932BD8B48D81ED52EF50922703E3932B14
:1009B000D8B48D81ED52EF50EFBE01D0800A93275D
:1009C000D8B08D818FB9FED68FBB3FD774D792EF49
:1009D00005F09D8AC00EF212000C1A6A196AF2889C
:1009E000C00EF212F18C000C3B2A3B50040805E3C8
:1009F0003C0ECF6EB00ECE6EF9D05A2C05D03C0E08
:100A0000CF6EB00ECE6EF2D0575241E158523FE158
:100A1000206A1F6A1E6A1D6AEA6A3D0EE96E886BCB
:100A20008A6B070E896F84EC00F05D6A3D0E5C6E88
:100A3000050EE96E20C088F01FC087F01EC086F04A
:100A40001DC085F0020E896F06DD476A466A456A59
:100A5000446AEA6A480EE96E886B8A6B070E896FF2
:100A600084EC00F05D6A480E5C6E050EE96E47C0CE
:100A700088F046C087F045C086F044C085F0020E7D
:100A8000896FE9DC3C0ECF6EB00ECE6EAFD03B6A04
:100A90004F2AD8B4502A9D9AF2981AC01CF019C057
:100AA0001BF0206A1F6A1E6A1D6A1CC08AF01BC0E8
:100AB00089F090DD00C085F001C086F002C087F0AB
:100AC00003C088F058C08AF057C089F083DD88C021
:100AD0008CF087C08BF086C08AF085C089F003C097
:100AE00090F002C08FF001C08EF000C08DF08DD567
:100AF00003C020F002C01FF001C01EF000C01DF0B6
:100B0000D89247C088F046C087F045C086F044C000
:100B100085F020C08CF01FC08BF01EC08AF01DC075
:100B200089F021D603C047F002C046F001C045F06D
:100B300000C044F020C095F01FC094F01EC093F098
:100B40001DC092F0996B986B610E976F8A0E966F2D
:100B500047EC01F003C020F002C01FF001C01EF0FE
:100B600000C01DF0EA6A3D0EE96E886B8A6B070EC5
:100B7000896F84EC00F05D6A3D0E5C6E050EE96ED7
:100B800020C088F01FC087F01EC086F01DC085F011
:100B9000020E896F60DCEA6A480EE96E886B8A6B28
:100BA000070E896F84EC00F05D6A480E5C6E050EDE
:100BB000E96E47C088F046C087F045C086F044C063
:100BC00085F0020E896F47DC5050450807E2FF0AA6
:100BD00003E14F504F0802E2010E596E9290897066
:100BE0003C0ECF6EB00ECE6EF4DEF7DE9E9038EF88
:100BF00000F0646A636A635012081FE36350622462
:100C0000656EF2CF66F0F29E65C0A9FFA69CA69E17
:100C1000A680A85066BEF28E666E036A6350F2CF5D
:100C200067F0F29E5BEC00F067BEF28E016E015041
:100C3000665C01E1642A632ADED76450130804E18C
:100C4000010E016E04D003D0000E016E00D0000C26
:100C50009D9AF298476A466A456A446A200E486E31
:100C6000300E496E2E0E4A6E300E4B6E4C6E4D6A33
:100C70004E6A010E636E626A6250120822E3036AD2
:100C80006250F2CF64F0F29E5BEC00F064BEF28E34
:100C9000656E63C0A9FFA86EA69CA69EA684F2CF2F
:100CA00000F0F29E0F01550EA76EAA0EA76EA68247
:100CB000A6B2FED7A6940050F212632A622A00015F
:100CC000DBD7626A6250030827E3656A440E646EEC
:100CD00062506424016E000E6520036E01C0E9FFBE
:100CE000EA6EEFCF66F063C0A9FF66C0A8FFA69CBE
:100CF000A69EA684F2CF00F0F29E0F01550EA76EBD
:100D0000AA0EA76EA682A6B2FED7A6940050F21233
:100D1000632A622A0001D6D73C0ECF6EB00ECE6E8B
:100D200058DE5BDE000C010E626E63DF015202E1F1
:100D30008FDF22D0140E606E616A615003081CE3DD
:100D4000636A440E626E61506224016E000E63207D
:100D5000036E0150E96E03C0EAFFF2CF66F0F29E27
:100D600060C0A9FFA69CA69EA680A85066BEF28E73
:100D7000EF6E602A612AE1D7B4EF08F09D9AF298ED
:100D8000586A576A200E486E300E496E2E0E4A6E13
:100D9000300E4B6E4C6E4D6A4E6A400E636E626A48
:100DA0006250120822E3036A6250F2CF64F0F29EAE
:100DB0005BEC00F064BEF28E656E63C0A9FFA86EA6
:100DC000A69CA69EA684F2CF00F0F29E0F01550EBF
:100DD000A76EAA0EA76EA682A6B2FED7A694005052
:100DE000F212632A622A0001DBD7626A62500308AA
:100DF00027E3656A570E646E62506424016E000E2C
:100E00006520036E01C0E9FFEA6EEFCF66F063C0B4
:100E1000A9FF66C0A8FFA69CA69EA684F2CF00F0FC
:100E2000F29E0F01550EA76EAA0EA76EA682A6B25D
:100E3000FED7A6940050F212632A622A0001D6D788
:100E40003C0ECF6EB00ECE6EC4DDC7DD2EEF07F0C8
:100E5000400E626ECEDE015202E190D722D0530ED8
:100E6000606E616A615001081CE3636A570E626E2E
:100E700061506224016E000E6320036E0150E96E22
:100E800003C0EAFFF2CF66F0F29E60C0A9FFA69C05
:100E9000A69EA680A85066BEF28EEF6E602A612ADA
:100EA000E1D7B5EF08F03B6AA50ECD6E3C0ECF6ED4
:100EB000B00ECE6E9D80C00EF212B8EF08F0EA6A56
:100EC000620EE96E886B8A6B1A0E896F84EC00F0F3
:100ED000020E626E61C063F0010E646E200E666EDB
:100EE000E00E656EEA6A620EE96E000EEF1008E031
:100EF000EF509EA8FED7AD6EE92AD8B4EA2AF5D7FE
:100F00000D0E9EA8FED7AD6E0A0E9EA8FED7AD6E42
:100F1000000C7F6AEA6A650EE96E886B8A6B1A0EAE
:100F2000896F84EC00F0020E656E010E666E61C082
:100F300067F062C068F064C082F063C081F0806BCB
:100F40006250805D0BE281C0E9FF82C0EAFFEF5092
:100F50007F26812BD8B4822B802BF2D77F50FF0ABB
:100F6000010F7F6EEA6A6A0EE96E64C0E2FF63C039
:100F7000E1FF6250016E04E0E6CFEEFF012EFCD7E8
:100F80007FC069F0EA6A650EE96E000EEF1008E0B6
:100F9000EF509EA8FED7AD6EE92AD8B4EA2AF5D75D
:100FA0000D0E9EA8FED7AD6E0A0E9EA8FED7AD6EA2
:100FB000000C9D9AF2981AC058F019C057F0400ED4
:100FC000616E626A6250120822E3036A6250F2CFD5
:100FD00063F0F29E5BEC00F063BEF28E646E61C063
:100FE000A9FFA86EA69CA69EA684F2CF00F0F29E52
:100FF0000F01550EA76EAA0EA76EA682A6B2FED747
:10100000A6940050F212612A622A0001DBD7626ABC
:101010006250010827E3646A570E636E62506324CE
:10102000016E000E6420036E01C0E9FFEA6EEFCF8F
:1010300065F061C0A9FF65C0A8FFA69CA69EA68416
:10104000F2CF00F0F29E0F01550EA76EAA0EA76E0A
:10105000A682A6B2FED7A6940050F212612A622A96
:101060000001D6D73C0ECF6EB00ECE6EB2DCB5DC32
:1010700072EF08F0606A2250520A0BE0040A0EE098
:10108000070A15E01D0A1CE0090A23E0160A29E0F8
:101090002ED0DEDD520E616E12DF36D0560E616E3E
:1010A000060E626E646A3D0E636E33DF2DD0510E04
:1010B000616E050E626E646A510E636E2ADF24D083
:1010C0004C0E616E060E626E646A480E636E21DF1E
:1010D0001BD089809290010E5A6E450E616EEFDE34
:1010E00013D067D75A6A530E616EE9DE0DD03C6AA1
:1010F000010E3A6EEA6A210EE96E886B8A6B180E51
:10110000896F84EC00F000D0BEEF08F0F86AD09E42
:101110000D8EEA6AE96AB896190EAF6EA60EAC6E2D
:10112000900EAB6EC150C00B0F09C16E070EB46EAE
:10113000560E516E310E526E2E0E536E300E546E90
:10114000556E566A5B6A5C6A5D6A1C6A1B6A1A6A3B
:10115000196A506A4F6A3C6A010E3A6E596A5A6AB5
:101160005F6E89809290DFD573D633DC36DC9BD6F8
:10117000D18004003C2C02D03C6A7CD7592C3AD058
:101180005A5238E19D9AF2985E6A5E50030827E34E
:10119000616A440E606E5E506024016E000E612034
:1011A000036E01C0E9FFEA6EEFCF62F05FC0A9FFF6
:1011B00062C0A8FFA69CA69EA684F2CF00F0F29E75
:1011C0000F01550EA76EAA0EA76EA682A6B2FED775
:1011D000A6940050F2125F2A5E2A0001D6D7596AFF
:1011E000506A4F6A3C0ECF6EB00ECE6EE9EC04F042
:0811F000EDEC04F0BED7030092
:020000040030CA
:0E00000000021E0F008381000FC00FE00F40B2
:00000001FF
;PIC18F4520
